{
  "_format": "hh-sol-artifact-1",
  "contractName": "ClaimContract",
  "sourceName": "contracts/ClaimContract.sol",
  "abi": [
    {
      "inputs": [
        {
          "internalType": "address",
          "name": "_token",
          "type": "address"
        }
      ],
      "stateMutability": "nonpayable",
      "type": "constructor"
    },
    {
      "inputs": [
        {
          "internalType": "address",
          "name": "owner",
          "type": "address"
        }
      ],
      "name": "OwnableInvalidOwner",
      "type": "error"
    },
    {
      "inputs": [
        {
          "internalType": "address",
          "name": "account",
          "type": "address"
        }
      ],
      "name": "OwnableUnauthorizedAccount",
      "type": "error"
    },
    {
      "anonymous": false,
      "inputs": [
        {
          "indexed": true,
          "internalType": "address",
          "name": "previousOwner",
          "type": "address"
        },
        {
          "indexed": true,
          "internalType": "address",
          "name": "newOwner",
          "type": "address"
        }
      ],
      "name": "OwnershipTransferred",
      "type": "event"
    },
    {
      "inputs": [],
      "name": "claim",
      "outputs": [],
      "stateMutability": "nonpayable",
      "type": "function"
    },
    {
      "inputs": [
        {
          "internalType": "address",
          "name": "",
          "type": "address"
        }
      ],
      "name": "hasClaimed",
      "outputs": [
        {
          "internalType": "bool",
          "name": "",
          "type": "bool"
        }
      ],
      "stateMutability": "view",
      "type": "function"
    },
    {
      "inputs": [],
      "name": "owner",
      "outputs": [
        {
          "internalType": "address",
          "name": "",
          "type": "address"
        }
      ],
      "stateMutability": "view",
      "type": "function"
    },
    {
      "inputs": [],
      "name": "renounceOwnership",
      "outputs": [],
      "stateMutability": "nonpayable",
      "type": "function"
    },
    {
      "inputs": [],
      "name": "token",
      "outputs": [
        {
          "internalType": "contract IERC20",
          "name": "",
          "type": "address"
        }
      ],
      "stateMutability": "view",
      "type": "function"
    },
    {
      "inputs": [
        {
          "internalType": "address",
          "name": "newOwner",
          "type": "address"
        }
      ],
      "name": "transferOwnership",
      "outputs": [],
      "stateMutability": "nonpayable",
      "type": "function"
    },
    {
      "inputs": [],
      "name": "withdraw",
      "outputs": [],
      "stateMutability": "nonpayable",
      "type": "function"
    }
  ],
  "bytecode": "0x608060405234801561001057600080fd5b5060405162000c6338038062000c6383398181016040528101906100349190610225565b33600073ffffffffffffffffffffffffffffffffffffffff168173ffffffffffffffffffffffffffffffffffffffff16036100a75760006040517f1e4fbdf700000000000000000000000000000000000000000000000000000000815260040161009e9190610261565b60405180910390fd5b6100b6816100fe60201b60201c565b5080600160006101000a81548173ffffffffffffffffffffffffffffffffffffffff021916908373ffffffffffffffffffffffffffffffffffffffff1602179055505061027c565b60008060009054906101000a900473ffffffffffffffffffffffffffffffffffffffff169050816000806101000a81548173ffffffffffffffffffffffffffffffffffffffff021916908373ffffffffffffffffffffffffffffffffffffffff1602179055508173ffffffffffffffffffffffffffffffffffffffff168173ffffffffffffffffffffffffffffffffffffffff167f8be0079c531659141344cd1fd0a4f28419497f9722a3daafe3b4186f6b6457e060405160405180910390a35050565b600080fd5b600073ffffffffffffffffffffffffffffffffffffffff82169050919050565b60006101f2826101c7565b9050919050565b610202816101e7565b811461020d57600080fd5b50565b60008151905061021f816101f9565b92915050565b60006020828403121561023b5761023a6101c2565b5b600061024984828501610210565b91505092915050565b61025b816101e7565b82525050565b60006020820190506102766000830184610252565b92915050565b6109d7806200028c6000396000f3fe608060405234801561001057600080fd5b506004361061007d5760003560e01c806373b2e80e1161005b57806373b2e80e146100a05780638da5cb5b146100d0578063f2fde38b146100ee578063fc0c546a1461010a5761007d565b80633ccfd60b146100825780634e71d92d1461008c578063715018a614610096575b600080fd5b61008a610128565b005b610094610275565b005b61009e610406565b005b6100ba60048036038101906100b591906106c5565b61041a565b6040516100c7919061070d565b60405180910390f35b6100d861043a565b6040516100e59190610737565b60405180910390f35b610108600480360381019061010391906106c5565b610463565b005b6101126104e9565b60405161011f91906107b1565b60405180910390f35b61013061050f565b600160009054906101000a900473ffffffffffffffffffffffffffffffffffffffff1673ffffffffffffffffffffffffffffffffffffffff1663a9059cbb61017661043a565b600160009054906101000a900473ffffffffffffffffffffffffffffffffffffffff1673ffffffffffffffffffffffffffffffffffffffff166370a08231306040518263ffffffff1660e01b81526004016101d19190610737565b602060405180830381865afa1580156101ee573d6000803e3d6000fd5b505050506040513d601f19601f820116820180604052508101906102129190610802565b6040518363ffffffff1660e01b815260040161022f92919061083e565b6020604051808303816000875af115801561024e573d6000803e3d6000fd5b505050506040513d601f19601f820116820180604052508101906102729190610893565b50565b600260003373ffffffffffffffffffffffffffffffffffffffff1673ffffffffffffffffffffffffffffffffffffffff16815260200190815260200160002060009054906101000a900460ff1615610302576040517f08c379a00000000000000000000000000000000000000000000000000000000081526004016102f99061091d565b60405180910390fd5b6001600260003373ffffffffffffffffffffffffffffffffffffffff1673ffffffffffffffffffffffffffffffffffffffff16815260200190815260200160002060006101000a81548160ff021916908315150217905550600160009054906101000a900473ffffffffffffffffffffffffffffffffffffffff1673ffffffffffffffffffffffffffffffffffffffff1663a9059cbb3368056bc75e2d631000006040518363ffffffff1660e01b81526004016103c0929190610978565b6020604051808303816000875af11580156103df573d6000803e3d6000fd5b505050506040513d601f19601f820116820180604052508101906104039190610893565b50565b61040e61050f565b6104186000610596565b565b60026020528060005260406000206000915054906101000a900460ff1681565b60008060009054906101000a900473ffffffffffffffffffffffffffffffffffffffff16905090565b61046b61050f565b600073ffffffffffffffffffffffffffffffffffffffff168173ffffffffffffffffffffffffffffffffffffffff16036104dd5760006040517f1e4fbdf70000000000000000000000000000000000000000000000000000000081526004016104d49190610737565b60405180910390fd5b6104e681610596565b50565b600160009054906101000a900473ffffffffffffffffffffffffffffffffffffffff1681565b61051761065a565b73ffffffffffffffffffffffffffffffffffffffff1661053561043a565b73ffffffffffffffffffffffffffffffffffffffff16146105945761055861065a565b6040517f118cdaa700000000000000000000000000000000000000000000000000000000815260040161058b9190610737565b60405180910390fd5b565b60008060009054906101000a900473ffffffffffffffffffffffffffffffffffffffff169050816000806101000a81548173ffffffffffffffffffffffffffffffffffffffff021916908373ffffffffffffffffffffffffffffffffffffffff1602179055508173ffffffffffffffffffffffffffffffffffffffff168173ffffffffffffffffffffffffffffffffffffffff167f8be0079c531659141344cd1fd0a4f28419497f9722a3daafe3b4186f6b6457e060405160405180910390a35050565b600033905090565b600080fd5b600073ffffffffffffffffffffffffffffffffffffffff82169050919050565b600061069282610667565b9050919050565b6106a281610687565b81146106ad57600080fd5b50565b6000813590506106bf81610699565b92915050565b6000602082840312156106db576106da610662565b5b60006106e9848285016106b0565b91505092915050565b60008115159050919050565b610707816106f2565b82525050565b600060208201905061072260008301846106fe565b92915050565b61073181610687565b82525050565b600060208201905061074c6000830184610728565b92915050565b6000819050919050565b600061077761077261076d84610667565b610752565b610667565b9050919050565b60006107898261075c565b9050919050565b600061079b8261077e565b9050919050565b6107ab81610790565b82525050565b60006020820190506107c660008301846107a2565b92915050565b6000819050919050565b6107df816107cc565b81146107ea57600080fd5b50565b6000815190506107fc816107d6565b92915050565b60006020828403121561081857610817610662565b5b6000610826848285016107ed565b91505092915050565b610838816107cc565b82525050565b60006040820190506108536000830185610728565b610860602083018461082f565b9392505050565b610870816106f2565b811461087b57600080fd5b50565b60008151905061088d81610867565b92915050565b6000602082840312156108a9576108a8610662565b5b60006108b78482850161087e565b91505092915050565b600082825260208201905092915050565b7f416c726561647920636c61696d65640000000000000000000000000000000000600082015250565b6000610907600f836108c0565b9150610912826108d1565b602082019050919050565b60006020820190508181036000830152610936816108fa565b9050919050565b6000819050919050565b600061096261095d6109588461093d565b610752565b6107cc565b9050919050565b61097281610947565b82525050565b600060408201905061098d6000830185610728565b61099a6020830184610969565b939250505056fea26469706673582212209f710c1ded1bd0d639903dc58cba9b9078eb445328bdefa75e3edc84080eed0b64736f6c63430008140033",
  "linkReferences": {},
  "deployedLinkReferences": {}
}